:060000000205230201A22B
:0300130002015C8B
:100100007F047EFF7DFFDDFEDEFADFF6227F3C7E90
:10011000FF7DFFDDFEDEFADFF6227E807DFFDDFE65
:10012000DEFA221201009020007438F012011A74D5
:100130000EF012011A7401F012011A22C083C0825B
:10014000902000F012011AD082D08322C083C08296
:10015000902001F012011AD082D08322C2AFC08356
:10016000C082D22530261E740112013C9004711207
:10017000051774C012013C9004FE120517C29112BB
:10018000010D0203AF740112013C900436120517F1
:1001900074C012013C900444120517D082D083D25F
:1001A000AF32C2AFC083C082904000E0540F9005D0
:1001B000089320296A20286420235BF546742A12BC
:1001C000014CE546A840B804081540B57045020446
:1001D0001EA840B803081540B5713802041EA84097
:1001E000B802081540B5722B02041E1540B57323E2
:1001F00030226E020253740112013C900449120530
:100200001774C012013C9004E1120517D290D2235A
:1002100002041E02025302033C0203010203040211
:1002200002A8740112013C90045612051712010035
:10023000120100740112013C90043612051774C0BB
:1002400012013C900444120517C222154575400462
:1002500002041ED222A840B8004BA945B900C380B1
:1002600095D229D226740112013C90047F12051701
:1002700074C012013C9004AA120517120100120169
:1002800000740112013C90048C12051774C0120115
:100290003C9004B312051712010012010074011200
:1002A000013C02041E020301B40A11C22920252ABE
:1002B0009004631205170202D702041EB40B42C257
:1002C00029D22890049B12051774C012013C900497
:1002D0004412051702041E302527900471120517D9
:1002E00074C012013C9004FE120517C29112010D58
:1002F0000203AF740112013C90046312051702035C
:1003000001020383F546742A12014CE546A855B84C
:1003100004071555F57002041EA855B803071555B6
:10032000F57102041EA855B802071555F5720204AE
:100330001E1540F573C228C2290203AFF546742A80
:1003400012014CE546A860B804081560B4092802FB
:10035000041EA860B803081560B4081B02041EA898
:1003600060B802081560B4070E02041E1560B406DA
:100370000630241202041ED224A860B80005A96524
:10038000B9002202041E740112013C9004E7120518
:100390001774C012013C9004F112051712010012EB
:1003A000011A0203AFC224156575600402041EC25F
:1003B00022C223C224C225C226C228C229C290D288
:1003C0009175400475450275600475656475550442
:1003D000740112013C90042812051774C012013CEC
:1003E000120100120100740112013C9004C91205AF
:1003F0001774C012013C9004441205179004D912DE
:100400000517120100120100740112013C9004361C
:1004100012051774C012013C900444120517D082D3
:10042000D08330B2FDD2AF32202057656C636F6D40
:10043000652020546FFF202020456E746572204394
:100440006F6465FF20202020FF2020202D3D416C7F
:1004500061726D3D2DFF202020547279204167612B
:10046000696EFF506173732052464944206B657971
:10047000FF506C6561736520456E74657220FF5492
:100480006F204F70656E20446F6F72FF544F204392
:1004900068616E676520436F6465FF456E746572C1
:1004A000204E455720636F6465FF5072657373205B
:1004B0004120FF50726573732042FF456E74657270
:1004C00020436F6465FF2020FF526F6D616E2052E4
:1004D00061706F706F727473FF50726F6A656374CE
:1004E000FF2020202020FF20202020416C61726D01
:1004F000FF204465616374697661746564FF202040
:100500002020686F757365FF0102030A0405060B5E
:100510000708090C00230DE493B4FF012212014CDB
:10052000A380F4C2AF120123C290D291900428128A
:100530000517120100120100740112013C9004C958
:1005400012051774C012013C900444120517900460
:10055000D9120517120100120100740112013C7535
:1005600070017571027572037573047547097548DA
:1005700008754907755006C222C223C224C225C28B
:1005800026C228C22990043612051774C012013CF5
:100590009004441205177540047545027560047592
:0A05A000656475550475A88580FE9A
:00000001FF
